{
  "_format": "hh-sol-artifact-1",
  "contractName": "RaceFactory",
  "sourceName": "contracts/RaceFactory.sol",
  "abi": [
    {
      "inputs": [
        {
          "internalType": "address",
          "name": "_oracle",
          "type": "address"
        }
      ],
      "stateMutability": "nonpayable",
      "type": "constructor"
    },
    {
      "inputs": [],
      "name": "AlreadyJoined",
      "type": "error"
    },
    {
      "inputs": [],
      "name": "InsufficientPayment",
      "type": "error"
    },
    {
      "inputs": [],
      "name": "InvalidEntryFee",
      "type": "error"
    },
    {
      "inputs": [],
      "name": "RaceAlreadyStarted",
      "type": "error"
    },
    {
      "inputs": [],
      "name": "RaceNotFound",
      "type": "error"
    },
    {
      "inputs": [],
      "name": "TransferFailed",
      "type": "error"
    },
    {
      "inputs": [],
      "name": "Unauthorized",
      "type": "error"
    },
    {
      "anonymous": false,
      "inputs": [
        {
          "indexed": true,
          "internalType": "uint256",
          "name": "raceId",
          "type": "uint256"
        },
        {
          "indexed": true,
          "internalType": "address",
          "name": "player",
          "type": "address"
        },
        {
          "indexed": false,
          "internalType": "uint8",
          "name": "team",
          "type": "uint8"
        }
      ],
      "name": "PlayerJoined",
      "type": "event"
    },
    {
      "anonymous": false,
      "inputs": [
        {
          "indexed": true,
          "internalType": "uint256",
          "name": "raceId",
          "type": "uint256"
        },
        {
          "indexed": true,
          "internalType": "address",
          "name": "host",
          "type": "address"
        },
        {
          "indexed": false,
          "internalType": "address",
          "name": "raceInstance",
          "type": "address"
        },
        {
          "indexed": false,
          "internalType": "uint256",
          "name": "entryFee",
          "type": "uint256"
        }
      ],
      "name": "RaceCreated",
      "type": "event"
    },
    {
      "anonymous": false,
      "inputs": [
        {
          "indexed": true,
          "internalType": "uint256",
          "name": "raceId",
          "type": "uint256"
        },
        {
          "indexed": false,
          "internalType": "uint8",
          "name": "winningTeam",
          "type": "uint8"
        }
      ],
      "name": "RaceEnded",
      "type": "event"
    },
    {
      "anonymous": false,
      "inputs": [
        {
          "indexed": true,
          "internalType": "uint256",
          "name": "raceId",
          "type": "uint256"
        }
      ],
      "name": "RaceStarted",
      "type": "event"
    },
    {
      "inputs": [
        {
          "internalType": "uint256",
          "name": "",
          "type": "uint256"
        }
      ],
      "name": "activeRaceIds",
      "outputs": [
        {
          "internalType": "uint256",
          "name": "",
          "type": "uint256"
        }
      ],
      "stateMutability": "view",
      "type": "function"
    },
    {
      "inputs": [
        {
          "internalType": "uint256",
          "name": "entryFee",
          "type": "uint256"
        }
      ],
      "name": "createRace",
      "outputs": [
        {
          "internalType": "uint256",
          "name": "",
          "type": "uint256"
        }
      ],
      "stateMutability": "payable",
      "type": "function"
    },
    {
      "inputs": [],
      "name": "getActiveRaces",
      "outputs": [
        {
          "internalType": "uint256[]",
          "name": "",
          "type": "uint256[]"
        }
      ],
      "stateMutability": "view",
      "type": "function"
    },
    {
      "inputs": [
        {
          "internalType": "uint256",
          "name": "raceId",
          "type": "uint256"
        }
      ],
      "name": "getRaceDetails",
      "outputs": [
        {
          "internalType": "address",
          "name": "raceAddress",
          "type": "address"
        },
        {
          "internalType": "address",
          "name": "host",
          "type": "address"
        },
        {
          "internalType": "uint256",
          "name": "entryFee",
          "type": "uint256"
        },
        {
          "internalType": "enum RaceInstance.RaceState",
          "name": "currentState",
          "type": "uint8"
        },
        {
          "internalType": "uint256",
          "name": "totalPlayers",
          "type": "uint256"
        },
        {
          "internalType": "uint256",
          "name": "prizePool",
          "type": "uint256"
        }
      ],
      "stateMutability": "view",
      "type": "function"
    },
    {
      "inputs": [
        {
          "internalType": "uint256",
          "name": "",
          "type": "uint256"
        }
      ],
      "name": "isRaceActive",
      "outputs": [
        {
          "internalType": "bool",
          "name": "",
          "type": "bool"
        }
      ],
      "stateMutability": "view",
      "type": "function"
    },
    {
      "inputs": [
        {
          "internalType": "uint256",
          "name": "raceId",
          "type": "uint256"
        }
      ],
      "name": "joinRace",
      "outputs": [],
      "stateMutability": "payable",
      "type": "function"
    },
    {
      "inputs": [
        {
          "internalType": "uint256",
          "name": "raceId",
          "type": "uint256"
        },
        {
          "internalType": "uint8",
          "name": "winningTeam",
          "type": "uint8"
        }
      ],
      "name": "markRaceEnded",
      "outputs": [],
      "stateMutability": "nonpayable",
      "type": "function"
    },
    {
      "inputs": [],
      "name": "oracle",
      "outputs": [
        {
          "internalType": "address",
          "name": "",
          "type": "address"
        }
      ],
      "stateMutability": "view",
      "type": "function"
    },
    {
      "inputs": [
        {
          "internalType": "uint256",
          "name": "",
          "type": "uint256"
        }
      ],
      "name": "raceHosts",
      "outputs": [
        {
          "internalType": "address",
          "name": "",
          "type": "address"
        }
      ],
      "stateMutability": "view",
      "type": "function"
    },
    {
      "inputs": [
        {
          "internalType": "uint256",
          "name": "",
          "type": "uint256"
        }
      ],
      "name": "races",
      "outputs": [
        {
          "internalType": "address",
          "name": "",
          "type": "address"
        }
      ],
      "stateMutability": "view",
      "type": "function"
    },
    {
      "inputs": [
        {
          "internalType": "address",
          "name": "newOracle",
          "type": "address"
        }
      ],
      "name": "setOracle",
      "outputs": [],
      "stateMutability": "nonpayable",
      "type": "function"
    },
    {
      "inputs": [
        {
          "internalType": "uint256",
          "name": "raceId",
          "type": "uint256"
        }
      ],
      "name": "startRace",
      "outputs": [],
      "stateMutability": "nonpayable",
      "type": "function"
    }
  ],
  "bytecode": "0x6080604052348015600f57600080fd5b506040516126e93803806126e9833981016040819052602c916050565b600580546001600160a01b0319166001600160a01b0392909216919091179055607e565b600060208284031215606157600080fd5b81516001600160a01b0381168114607757600080fd5b9392505050565b61265c8061008d6000396000f3fe6080604052600436106100a75760003560e01c80637a74a517116100645780637a74a517146101c85780637adbf973146101fa5780637bbc469e1461021a5780637dc0d1d014610250578063a89adff014610270578063e1fa0b7d1461028357600080fd5b806324d822bf146100ac578063336e7d77146100ce5780634db7b65b146100f957806350c95171146101275780636bf916b61461013a5780636f72ebeb1461017a575b600080fd5b3480156100b857600080fd5b506100cc6100c7366004610f49565b6102a3565b005b3480156100da57600080fd5b506100e3610397565b6040516100f09190610f62565b60405180910390f35b34801561010557600080fd5b50610119610114366004610f49565b6106db565b6040519081526020016100f0565b6100cc610135366004610f49565b6106fc565b34801561014657600080fd5b5061016a610155366004610f49565b60046020526000908152604090205460ff1681565b60405190151581526020016100f0565b34801561018657600080fd5b506101b0610195366004610f49565b6002602052600090815260409020546001600160a01b031681565b6040516001600160a01b0390911681526020016100f0565b3480156101d457600080fd5b506101e86101e3366004610f49565b6109ea565b6040516100f096959493929190610fbb565b34801561020657600080fd5b506100cc610215366004611015565b610bdb565b34801561022657600080fd5b506101b0610235366004610f49565b6001602052600090815260409020546001600160a01b031681565b34801561025c57600080fd5b506005546101b0906001600160a01b031681565b61011961027e366004610f49565b610c27565b34801561028f57600080fd5b506100cc61029e366004611045565b610eb3565b6000818152600160205260409020546001600160a01b0316806102d957604051632360bad160e11b815260040160405180910390fd5b6000828152600260205260409020546001600160a01b0316331461030f576040516282b42960e81b815260040160405180910390fd5b6000819050806001600160a01b0316636ad7ed476040518163ffffffff1660e01b8152600401600060405180830381600087803b15801561034f57600080fd5b505af1158015610363573d6000803e3d6000fd5b50506040518592507fd8a537561d247cabc83980738b2fd3771513f9b3a4b696b3fead967d36efe7da9150600090a2505050565b60606000805b6003548110156104f457600060016000600384815481106103c0576103c061107b565b600091825260208083209091015483528201929092526040018120546001600160a01b03169150816001600160a01b031663c19d93fb6040518163ffffffff1660e01b8152600401602060405180830381865afa158015610425573d6000803e3d6000fd5b505050506040513d601f19601f820116820180604052508101906104499190611091565b600281111561045a5761045a610fa5565b14806104d857506001816001600160a01b031663c19d93fb6040518163ffffffff1660e01b8152600401602060405180830381865afa1580156104a1573d6000803e3d6000fd5b505050506040513d601f19601f820116820180604052508101906104c59190611091565b60028111156104d6576104d6610fa5565b145b156104eb57826104e7816110b2565b9350505b5060010161039d565b5060008167ffffffffffffffff811115610510576105106110d9565b604051908082528060200260200182016040528015610539578160200160208202803683370190505b5090506000805b6003548110156106d257600060016000600384815481106105635761056361107b565b600091825260208083209091015483528201929092526040018120546001600160a01b03169150816001600160a01b031663c19d93fb6040518163ffffffff1660e01b8152600401602060405180830381865afa1580156105c8573d6000803e3d6000fd5b505050506040513d601f19601f820116820180604052508101906105ec9190611091565b60028111156105fd576105fd610fa5565b148061067b57506001816001600160a01b031663c19d93fb6040518163ffffffff1660e01b8152600401602060405180830381865afa158015610644573d6000803e3d6000fd5b505050506040513d601f19601f820116820180604052508101906106689190611091565b600281111561067957610679610fa5565b145b156106c957600382815481106106935761069361107b565b90600052602060002001548484815181106106b0576106b061107b565b6020908102919091010152826106c5816110b2565b9350505b50600101610540565b50909392505050565b600381815481106106eb57600080fd5b600091825260209091200154905081565b6000818152600160205260409020546001600160a01b03168061073257604051632360bad160e11b815260040160405180910390fd5b806000816001600160a01b031663c19d93fb6040518163ffffffff1660e01b8152600401602060405180830381865afa158015610773573d6000803e3d6000fd5b505050506040513d601f19601f820116820180604052508101906107979190611091565b60028111156107a8576107a8610fa5565b146107c657604051630187cfb960e51b815260040160405180910390fd5b6000816001600160a01b031663072ea61c6040518163ffffffff1660e01b8152600401602060405180830381865afa158015610806573d6000803e3d6000fd5b505050506040513d601f19601f8201168201806040525081019061082a91906110ef565b905080341461084c5760405163cd1c886760e01b815260040160405180910390fd5b6000836001600160a01b03163460405160006040518083038185875af1925050503d8060008114610899576040519150601f19603f3d011682016040523d82523d6000602084013e61089e565b606091505b50509050806108c0576040516312171d8360e31b815260040160405180910390fd5b6000836001600160a01b0316634529cae76040518163ffffffff1660e01b8152600401602060405180830381865afa158015610900573d6000803e3d6000fd5b505050506040513d601f19601f8201168201806040525081019061092491906110ef565b90506000610933600283611108565b1561093f576002610942565b60015b604051632126a48560e11b815233600482015260ff821660248201529091506001600160a01b0386169063424d490a90604401600060405180830381600087803b15801561098f57600080fd5b505af11580156109a3573d6000803e3d6000fd5b505060405160ff841681523392508991507f267de9464a1783407eb0e8ba56bcd59ef059648e576c0703bfd6a3b84355e8319060200160405180910390a350505050505050565b6000818152600160205260408120546001600160a01b0316908080808085610a2557604051632360bad160e11b815260040160405180910390fd5b6000878152600260209081526040918290205482516301cba98760e21b815292516001600160a01b03918216985089939184169263072ea61c92600480820193918290030181865afa158015610a7f573d6000803e3d6000fd5b505050506040513d601f19601f82011682018060405250810190610aa391906110ef565b9450806001600160a01b031663c19d93fb6040518163ffffffff1660e01b8152600401602060405180830381865afa158015610ae3573d6000803e3d6000fd5b505050506040513d601f19601f82011682018060405250810190610b079190611091565b9350806001600160a01b0316634529cae76040518163ffffffff1660e01b8152600401602060405180830381865afa158015610b47573d6000803e3d6000fd5b505050506040513d601f19601f82011682018060405250810190610b6b91906110ef565b9250806001600160a01b031663719ce73e6040518163ffffffff1660e01b8152600401602060405180830381865afa158015610bab573d6000803e3d6000fd5b505050506040513d601f19601f82011682018060405250810190610bcf91906110ef565b91505091939550919395565b6005546001600160a01b03163314610c05576040516282b42960e81b815260040160405180910390fd5b600580546001600160a01b0319166001600160a01b0392909216919091179055565b600081600003610c4a57604051636fe6a4c960e01b815260040160405180910390fd5b813414610c6a5760405163cd1c886760e01b815260040160405180910390fd5b600080548180610c79836110b2565b909155506005546040519192506000918391869133916001600160a01b031690610ca290610f3c565b93845260208401929092526001600160a01b039081166040840152166060820152608001604051809103906000f080158015610ce2573d6000803e3d6000fd5b50600083815260016020818152604080842080546001600160a01b0387166001600160a01b0319918216811790925560028452828620805490911633179055600380548086019091557fc2575a0e9e593c00f959f8c92f12db2869c3395a3b0502d05e2516446f71f85b018890556004909252808420805460ff19169093179092559051929350909134908381818185875af1925050503d8060008114610da5576040519150601f19603f3d011682016040523d82523d6000602084013e610daa565b606091505b5050905080610dcc576040516312171d8360e31b815260040160405180910390fd5b604051632126a48560e11b8152336004820152600160248201526001600160a01b0383169063424d490a90604401600060405180830381600087803b158015610e1457600080fd5b505af1158015610e28573d6000803e3d6000fd5b5050604080516001600160a01b0386168152602081018990523393508692507fe6b5bb5138c4657182cbea65033b7cda052e412b323717daa7ece44987662cc6910160405180910390a360405160018152339084907f267de9464a1783407eb0e8ba56bcd59ef059648e576c0703bfd6a3b84355e8319060200160405180910390a350909392505050565b6000828152600160205260409020546001600160a01b03163314610ee9576040516282b42960e81b815260040160405180910390fd5b600082815260046020908152604091829020805460ff19169055905160ff8316815283917fbe045a0fc784de36c57feb418d84dfd315a578ca6df8fe8f162d7d126d349c7c910160405180910390a25050565b6114fc8061112b83390190565b600060208284031215610f5b57600080fd5b5035919050565b602080825282518282018190526000918401906040840190835b81811015610f9a578351835260209384019390920191600101610f7c565b509095945050505050565b634e487b7160e01b600052602160045260246000fd5b6001600160a01b038781168252861660208201526040810185905260c0810160038510610ff857634e487b7160e01b600052602160045260246000fd5b8460608301528360808301528260a0830152979650505050505050565b60006020828403121561102757600080fd5b81356001600160a01b038116811461103e57600080fd5b9392505050565b6000806040838503121561105857600080fd5b82359150602083013560ff8116811461107057600080fd5b809150509250929050565b634e487b7160e01b600052603260045260246000fd5b6000602082840312156110a357600080fd5b81516003811061103e57600080fd5b6000600182016110d257634e487b7160e01b600052601160045260246000fd5b5060010190565b634e487b7160e01b600052604160045260246000fd5b60006020828403121561110157600080fd5b5051919050565b60008261112557634e487b7160e01b600052601260045260246000fd5b50069056fe61012060405234801561001157600080fd5b506040516114fc3803806114fc83398101604081905261003091610083565b6001600081905560809490945260a0929092526001600160a01b0390811660c0523360e0521661010052805460ff191690556100ca565b80516001600160a01b038116811461007e57600080fd5b919050565b6000806000806080858703121561009957600080fd5b8451602086015190945092506100b160408601610067565b91506100bf60608601610067565b905092959194509250565b60805160a05160c05160e051610100516113cb6101316000396000818161036501526105c30152600081816103eb015281816109060152610a1d0152600081816104cf0152610c4b0152600061018501526000818161049b01526108d301526113cb6000f3fe60806040526004361061014f5760003560e01c80637dc0d1d0116100b6578063de3f18e21161006f578063de3f18e21461044f578063e12f3a6114610469578063ed3a865e14610489578063f437bc59146104bd578063f9d4f21e146104f1578063fc8170dd1461050757600080fd5b80637dc0d1d0146103535780638ef82f7614610387578063b401faf11461039d578063c19d93fb146103b2578063c45a0155146103d9578063c9a1ca751461040d57600080fd5b8063424d490a11610108578063424d490a146102965780634529cae7146102b65780636ad7ed47146102cb578063719ce73e146102e057806372a83c24146102f657806373b2e80e1461032357600080fd5b8063072ea61c1461017357806308c8f94f146101ba57806309c95e10146101f25780630dd42c3d146102325780631e6ae3831461025257806320e8302d1461027457600080fd5b3661016e57346002600082825461016691906110ae565b925050819055005b600080fd5b34801561017f57600080fd5b506101a77f000000000000000000000000000000000000000000000000000000000000000081565b6040519081526020015b60405180910390f35b3480156101c657600080fd5b506101da6101d53660046110c7565b61051c565b6040516001600160a01b0390911681526020016101b1565b3480156101fe57600080fd5b5061022261020d3660046110fc565b60056020526000908152604090205460ff1681565b60405190151581526020016101b1565b34801561023e57600080fd5b506101da61024d3660046110c7565b610546565b34801561025e57600080fd5b50610267610556565b6040516101b19190611117565b34801561028057600080fd5b5061029461028f3660046111af565b6105b8565b005b3480156102a257600080fd5b506102946102b1366004611220565b610a12565b3480156102c257600080fd5b506101a7610c29565b3480156102d757600080fd5b50610294610c40565b3480156102ec57600080fd5b506101a760025481565b34801561030257600080fd5b506101a76103113660046110fc565b60076020526000908152604090205481565b34801561032f57600080fd5b5061022261033e3660046110fc565b600b6020526000908152604090205460ff1681565b34801561035f57600080fd5b506101da7f000000000000000000000000000000000000000000000000000000000000000081565b34801561039357600080fd5b506101a760095481565b3480156103a957600080fd5b50610294610d25565b3480156103be57600080fd5b506001546103cc9060ff1681565b6040516101b19190611273565b3480156103e557600080fd5b506101da7f000000000000000000000000000000000000000000000000000000000000000081565b34801561041957600080fd5b5061043d6104283660046110fc565b60066020526000908152604090205460ff1681565b60405160ff90911681526020016101b1565b34801561045b57600080fd5b50600a5461043d9060ff1681565b34801561047557600080fd5b506101a76104843660046110fc565b610f0e565b34801561049557600080fd5b506101a77f000000000000000000000000000000000000000000000000000000000000000081565b3480156104c957600080fd5b506101da7f000000000000000000000000000000000000000000000000000000000000000081565b3480156104fd57600080fd5b506101a760085481565b34801561051357600080fd5b5061026761100e565b6003818154811061052c57600080fd5b6000918252602090912001546001600160a01b0316905081565b6004818154811061052c57600080fd5b606060038054806020026020016040519081016040528092919081815260200182805480156105ae57602002820191906000526020600020905b81546001600160a01b03168152600190910190602001808311610590575b5050505050905090565b336001600160a01b037f00000000000000000000000000000000000000000000000000000000000000001614610601576040516380fee10560e01b815260040160405180910390fd5b60018060015460ff16600281111561061b5761061b61125d565b146106395760405163baf3f0f760e01b815260040160405180910390fd5b61064161106e565b83821461066157604051634ec4810560e11b815260040160405180910390fd5b60008490036106835760405163e0d9272760e01b815260040160405180910390fd5b6000600660008787600081811061069c5761069c61129b565b90506020020160208101906106b191906110fc565b6001600160a01b03168152602081019190915260400160009081205460ff169150805b8681101561080b578260ff16600660008a8a858181106106f6576106f661129b565b905060200201602081019061070b91906110fc565b6001600160a01b0316815260208101919091526040016000205460ff161461074657604051636f6fc75f60e11b815260040160405180910390fd5b8585828181106107585761075861129b565b9050602002013560000361077f5760405163e0d9272760e01b815260040160405180910390fd5b8585828181106107915761079161129b565b90506020020135600760008a8a858181106107ae576107ae61129b565b90506020020160208101906107c391906110fc565b6001600160a01b031681526020810191909152604001600020558585828181106107ef576107ef61129b565b905060200201358261080191906110ae565b91506001016106d4565b50600a805460ff191660ff841690811790915560010361082f576008819055610835565b60098190555b6001805460ff191660021790556040517f4fed0d864f0ae3393ac74ab0803dbed3389fbc56aa5f6a46288efe92102bfd7d906108789089908990899089906112b1565b60405180910390a1600a546008546009546040805160ff9094168452602084019290925282820152517f8ed9086378e8924215a3eef186a22fa9f89ca5b74eb6247b4de320a9a79a65929181900360600190a1600a546040517f0000000000000000000000000000000000000000000000000000000000000000602482015260ff90911660448201526000907f00000000000000000000000000000000000000000000000000000000000000006001600160a01b03169060640160408051601f198184030181529181526020820180516001600160e01b031663e1fa0b7d60e01b17905251610967919061132d565b6000604051808303816000865af19150503d80600081146109a4576040519150601f19603f3d011682016040523d82523d6000602084013e6109a9565b606091505b50509050806109fe5760405162461bcd60e51b815260206004820152601b60248201527f466163746f7279206e6f74696669636174696f6e206661696c65640000000000604482015260640160405180910390fd5b505050610a0b6001600055565b5050505050565b336001600160a01b037f00000000000000000000000000000000000000000000000000000000000000001614610a5b57604051630636a15760e11b815260040160405180910390fd5b60008060015460ff166002811115610a7557610a7561125d565b14610a935760405163baf3f0f760e01b815260040160405180910390fd5b6001600160a01b03831660009081526005602052604090205460ff1615610acd5760405163912e4f6b60e01b815260040160405180910390fd5b8160ff16600114158015610ae557508160ff16600214155b15610b0357604051636f6fc75f60e11b815260040160405180910390fd5b6001600160a01b0383166000908152600560209081526040808320805460ff19908116600190811790925560069093529220805460ff86169216821790559003610b9757600380546001810182556000919091527fc2575a0e9e593c00f959f8c92f12db2869c3395a3b0502d05e2516446f71f85b0180546001600160a01b0319166001600160a01b038516179055610be3565b600480546001810182556000919091527f8a35acfbc15ff81a39ae7d344fd709f28e8600b4aa8c65c6b64bfe7fe36bd19b0180546001600160a01b0319166001600160a01b0385161790555b60405160ff831681526001600160a01b038416907f3138d9d3c5b626eff736a8d5bf07552d9f568087655c46803ee715f424ec1b8e9060200160405180910390a2505050565b600454600354600091610c3b916110ae565b905090565b336001600160a01b037f00000000000000000000000000000000000000000000000000000000000000001614610c8857604051620f491b60e11b815260040160405180910390fd5b60008060015460ff166002811115610ca257610ca261125d565b14610cc05760405163baf3f0f760e01b815260040160405180910390fd5b6003541580610ccf5750600454155b15610ced5760405163f770074360e01b815260040160405180910390fd5b6001805460ff1916811790556040517f40f28f962414a34b088df82539667c1668a54e8adac0002219a4c0f7d5c5d0e690600090a150565b610d2d61106e565b60028060015460ff166002811115610d4757610d4761125d565b14610d655760405163baf3f0f760e01b815260040160405180910390fd5b600a543360009081526006602052604090205460ff908116911614610d9d576040516358cd4fc160e11b815260040160405180910390fd5b336000908152600b602052604090205460ff1615610dce57604051630c8d9eab60e31b815260040160405180910390fd5b336000908152600760205260408120549003610dfd576040516358cd4fc160e11b815260040160405180910390fd5b336000908152600b60205260408120805460ff19166001908117909155600a5460ff1614610e2d57600954610e31565b6008545b60025433600090815260076020526040812054929350918391610e539161135c565b610e5d9190611373565b604051909150600090339083908381818185875af1925050503d8060008114610ea2576040519150601f19603f3d011682016040523d82523d6000602084013e610ea7565b606091505b5050905080610ec9576040516312171d8360e31b815260040160405180910390fd5b60405182815233907f1a31e733a172afcf46074b3106c17f0c298e226442682a03c1e99ce256139ec29060200160405180910390a250505050610f0c6001600055565b565b6000600260015460ff166002811115610f2957610f2961125d565b14610f3657506000919050565b600a546001600160a01b03831660009081526006602052604090205460ff908116911614610f6657506000919050565b6001600160a01b0382166000908152600b602052604090205460ff1615610f8f57506000919050565b6001600160a01b0382166000908152600760205260408120549003610fb657506000919050565b600a5460009060ff16600114610fce57600954610fd2565b6008545b6002546001600160a01b0385166000908152600760205260409020549192508291610ffd919061135c565b6110079190611373565b9392505050565b606060048054806020026020016040519081016040528092919081815260200182805480156105ae576020028201919060005260206000209081546001600160a01b03168152600190910190602001808311610590575050505050905090565b60026000540361109157604051633ee5aeb560e01b815260040160405180910390fd5b6002600055565b634e487b7160e01b600052601160045260246000fd5b808201808211156110c1576110c1611098565b92915050565b6000602082840312156110d957600080fd5b5035919050565b80356001600160a01b03811681146110f757600080fd5b919050565b60006020828403121561110e57600080fd5b611007826110e0565b602080825282518282018190526000918401906040840190835b818110156111585783516001600160a01b0316835260209384019390920191600101611131565b509095945050505050565b60008083601f84011261117557600080fd5b50813567ffffffffffffffff81111561118d57600080fd5b6020830191508360208260051b85010111156111a857600080fd5b9250929050565b600080600080604085870312156111c557600080fd5b843567ffffffffffffffff8111156111dc57600080fd5b6111e887828801611163565b909550935050602085013567ffffffffffffffff81111561120857600080fd5b61121487828801611163565b95989497509550505050565b6000806040838503121561123357600080fd5b61123c836110e0565b9150602083013560ff8116811461125257600080fd5b809150509250929050565b634e487b7160e01b600052602160045260246000fd5b602081016003831061129557634e487b7160e01b600052602160045260246000fd5b91905290565b634e487b7160e01b600052603260045260246000fd5b6040808252810184905260008560608301825b878110156112f2576001600160a01b036112dd846110e0565b168252602092830192909101906001016112c4565b5083810360208501528481526001600160fb1b0385111561131257600080fd5b8460051b915081866020830137016020019695505050505050565b6000825160005b8181101561134e5760208186018101518583015201611334565b506000920191825250919050565b80820281158282048414176110c1576110c1611098565b60008261139057634e487b7160e01b600052601260045260246000fd5b50049056fea2646970667358221220e31de043389572cfbaf61c8bc6b8e61b26c634dd159e5b5dc9876307ecc7bc1064736f6c634300081c0033a2646970667358221220f8fbd93d9ecc8ba04e4c174ae60e42f14177cd4a31fba76ea7daaa42ae8fd03064736f6c634300081c0033",
  "linkReferences": {},
  "deployedLinkReferences": {}
}